:020000040000FA
:100000000C9462000C948A000C948A000C948A0070
:100010000C948A000C948A000C948A000C948A0038
:100020000C948A000C948A000C948A000C94B704F7
:100030000C948A000C948A000C948A000C948A0018
:100040000C9415040C948A000C9485040C945F04A1
:100050000C948A000C948A000C948A000C948A00F8
:100060000C948A000C948A000000000023002600F3
:10007000290000000000240027002A0000000000E2
:10008000250028002B0004040404040404040202D4
:100090000202020203030303030301020408102007
:1000A0004080010204081020010204081020000012
:1000B0000008000201000003040700000000000027
:1000C0000000B80511241FBECFEFD8E0DEBFCDBFC2
:1000D00011E0A0E0B1E0ECE4F7E102C005900D9280
:1000E000A035B107D9F722E0A0E5B1E001C01D922B
:1000F000AB32B207E1F710E0C2E6D0E004C02197CE
:10010000FE010E949E0BC136D107C9F70E94150659
:100110000C94A40B0C940000CF92DF92EF92FF920C
:10012000803222E09207CCF520912902E8E8CE2E19
:10013000D12CC21AD10827FDD394CC0CDD1CCC0CD9
:10014000DD1C0D2C000CEE08FF0840912A0228E56A
:1001500032E0241B310947FD3395220F331F220F54
:10016000331F032E000C440B550B2C193D094E096F
:100170005F09DC01853B910514F0A4EBB0E00E941F
:10018000160924EB30E040E050E00E94EC08DA0170
:10019000C9018C0D9D1DAE1DBF1DE0912802EC30E4
:1001A00088F52091290248E850E0421B510927FDBB
:1001B0005395440F551F440F551F8417950784F01E
:1001C00020912A0248E552E0421B510927FD539530
:1001D000440F551F440F551F841795070CF4AC01AD
:1001E00042505109440F551F2FB7F8948E2F90E0BD
:1001F000FC01EE0FFF1FE80FF91FED5FFD4F52836B
:1002000041832FBFFF90EF90DF90CF90089590E053
:10021000FC01E255FF4F2491FC01E656FF4F34915B
:10022000FC01EA57FF4FE491EE23C9F0222339F095
:10023000233001F1A8F4213019F1223029F1F0E046
:10024000EE0FFF1FE458FF4FA591B4918FB7F894BC
:10025000EC91611126C030953E233C938FBF0895E9
:100260002730A9F02830C9F0243049F78091800068
:100270008F7D03C0809180008F7780938000DFCFD7
:1002800084B58F7784BDDBCF84B58F7DFBCF809124
:10029000B0008F778093B000D2CF8091B0008F7D77
:1002A000F9CF3E2BDACFCF93DF9390E0FC01E656F7
:1002B000FF4F24918A579F4FFC0184918823D1F0EE
:1002C00090E0880F991FFC01EE58FF4FA591B49163
:1002D000FC01E458FF4FC591D49161110EC09FB746
:1002E000F8948C91E22FE0958E238C932881E22361
:1002F000E8839FBFDF91CF9108958FB7F894EC9179
:10030000E22BEC938FBFF6CF3FB7F8948091620158
:1003100090916301A0916401B091650126B5A89BFD
:1003200005C02F3F19F00196A11DB11D3FBFBA2F87
:10033000A92F982F8827BC01CD01620F711D811D47
:10034000911D42E0660F771F881F991F4A95D1F7CC
:1003500008958F929F92AF92BF92CF92DF92EF92C9
:10036000FF924B015C010E9484016B017C010E94A1
:1003700084016C197D098E099F09683E73408105CF
:100380009105A8F321E0821A9108A108B10888EE2E
:10039000C80E83E0D81EE11CF11C81149104A10455
:1003A000B10429F7FF90EF90DF90CF90BF90AF900E
:1003B0009F908F900895AF92BF92CF92DF92EF926D
:1003C000FF920F931F93CF93DF936C017B018B01FF
:1003D000040F151FEB015E01AE18BF08C017D1074F
:1003E00059F06991D601ED91FC910190F081E02DD9
:1003F000C6010995892B79F7C501DF91CF911F912E
:100400000F91FF90EF90DF90CF90BF90AF90089545
:10041000FC01538D448D252F30E0842F90E0821B0A
:10042000930B541710F0CF96089501970895FC018F
:10043000918D828D981761F0A28DAE0FBF2FB11DE7
:100440005D968C91928D9F5F9F73928F90E008953F
:100450008FEF9FEF0895FC01918D828D981731F0F9
:10046000828DE80FF11D858D90E008958FEF9FEF4D
:100470000895FC01918D228D892F90E0805C9F4F23
:10048000821B91098F739927089586E691E00E9457
:10049000390221E0892B09F420E0822F089580E0C1
:1004A00090E0892B29F00E94450281110C940000F4
:1004B0000895FC01A48DA80FB92FB11DA35ABF4FF9
:1004C0002C91848D90E001968F739927848FA68953
:1004D000B7892C93A089B1898C91837080648C93A7
:1004E000938D848D981306C00288F389E02D808156
:1004F0008F7D80830895EF92FF920F931F93CF9388
:10050000DF93EC0181E0888F9B8D8C8D98131AC04E
:10051000E889F989808185FF15C09FB7F894EE8935
:10052000FF896083E889F989808183708064808392
:100530009FBF81E090E0DF91CF911F910F91FF90DD
:10054000EF900895F62E0B8D10E00F5F1F4F0F7385
:100550001127E02E8C8D8E110CC00FB607FCFACF40
:10056000E889F989808185FFF5CFCE010E94590283
:10057000F1CFEB8DEC0FFD2FF11DE35AFF4FF08211
:100580009FB7F8940B8FEA89FB8980818062CFCF77
:10059000CF93DF93EC01888D8823B9F0AA89BB89BA
:1005A000E889F9898C9185FD03C0808186FD0DC0A5
:1005B0000FB607FCF7CF8C9185FFF2CF808185FFC6
:1005C000EDCFCE010E945902E9CFDF91CF9108957E
:1005D000FC0101900020E9F73197AF01481B590B4E
:1005E000BC0186E691E00C94DB018F929F92AF9262
:1005F000BF920F931F93CF93DF93CDB7DEB7A19731
:100600000FB6F894DEBF0FBECDBF19A2423008F47A
:100610004AE08E010F5D1F4F842E912CB12CA12C2E
:10062000A50194010E941E09E62FB901CA01EA3012
:10063000F4F4E05DD801EE938D01232B242B252BC0
:1006400079F790E080E0109719F0CD010E94E80260
:10065000A1960FB6F894DEBF0FBECDBFDF91CF914C
:100660001F910F91BF90AF909F908F900895E95C7C
:10067000E1CF4F925F926F927F928F929F92AF9253
:10068000BF92CF92DF92EF92FF920F931F93CF937F
:100690006B017C01742EAC019B010E948D0B8823A1
:1006A00099F082E191E0CF911F910F91FF90EF902F
:1006B000DF90CF90BF90AF909F908F907F906F9082
:1006C0005F904F900C94E80246015701E894B7F808
:1006D0002FEF3FEF4FE75FE7C501B4010E948D0B9D
:1006E00081110DC02FEF3FEF4FE75FE7C501B40168
:1006F0000E94BC0918161CF486E191E0D4CF2FEFBC
:100700003FEF4FE75FE4C701B6010E941B0B1816CD
:100710001CF48AE191E0C7CF2FEF3FEF4FE75FEC8A
:10072000C701B6010E94BC0987FDF3CF20E030E08D
:10073000A901C701B6010E94BC0910E000E087FFD3
:100740000AC06DE286E691E00E947B028C01F7FA16
:10075000F094F7F8F094C0E060E070E080E09FE390
:100760007C1641F020E030E040E251E40E94C109F3
:10077000CF5FF6CFA70196010E9450092B013C01E3
:100780000E943A0A4B015C014AE00E94F5027C019A
:10079000E00EF11ECC23C1F1C501B4010E94690A2B
:1007A0009B01AC01C301B2010E944F094B015C01E6
:1007B0006EE286E691E00E947B02E80EF91EC150CF
:1007C00018F120E030E040E251E4C501B4010E949C
:1007D000200B2B013C010E943A0A4B01B12CA12CA9
:1007E0004AE0C501B4010E94F502E80EF91EC501F8
:1007F000B4010E94690A9B01AC01C301B2010E94CD
:100800004F094B015C01DBCFC701CF911F910F91C5
:10081000FF90EF90DF90CF90BF90AF909F908F9020
:100820007F906F905F904F9008951F920F920FB638
:100830000F9211242F933F938F939F93AF93BF9366
:1008400080915E0190915F01A0916001B091610182
:1008500030915D0123E0230F2D3758F50196A11D3E
:10086000B11D20935D0180935E0190935F01A09381
:100870006001B09361018091620190916301A09148
:100880006401B09165010196A11DB11D80936201C3
:1008900090936301A0936401B0936501BF91AF9100
:1008A0009F918F913F912F910F900FBE0F901F90AE
:1008B000189526E8230F0296A11DB11DD2CF1F92D5
:1008C0000F920FB60F9211242F933F934F935F9384
:1008D0006F937F938F939F93AF93BF93EF93FF9308
:1008E00086E691E00E945902FF91EF91BF91AF918E
:1008F0009F918F917F916F915F914F913F912F9138
:100900000F900FBE0F901F9018951F920F920FB669
:100910000F9211242F938F939F93EF93FF93E09166
:100920007601F09177018081E0917C01F0917D0169
:1009300082FD1BC0908180917F018F5F8F7320911A
:100940008001821741F0E0917F01F0E0EA59FE4F0B
:10095000958F80937F01FF91EF919F918F912F91C0
:100960000F900FBE0F901F9018958081F4CF1F92AB
:100970000F920FB60F9211242F933F934F935F93D3
:100980006F937F938F939F93AF93BF93CF93DF9397
:10099000EF93FF9380915001C0912702D0E087FF31
:1009A00024C01092850010928400809150018F5FC6
:1009B0008093500180915001082E000C990B8C17E8
:1009C0009D0724F4809150018C30C4F18091840003
:1009D00090918500049680349C4908F47AC08091F7
:1009E000840090918500049676C080915001082E75
:1009F000000C990B8C179D07C4F6E09150018E2FC7
:100A0000EE0F990BFC01EE0FFF1FE80FF91FED5FD2
:100A1000FD4F808186FFC9CFE09150018E2FEE0FF0
:100A2000990BFC01EE0FFF1FE80FF91FED5FFD4F63
:100A3000808160E08F730E940701B7CF209184000E
:100A400030918500E09150018E2FEE0F990BFC0143
:100A5000EE0FFF1FE80FF91FED5FFD4F81819281BF
:100A6000820F931F9093890080938800E09150013A
:100A70008E2FEE0F990BFC01EE0FFF1FE80FF91FF1
:100A8000ED5FFD4F808186FF11C0E09150018E2FF8
:100A9000EE0F990BFC01EE0FFF1FE80FF91FED5F42
:100AA000FD4F808161E08F730E940701FF91EF91FC
:100AB000DF91CF91BF91AF919F918F917F916F9176
:100AC0005F914F913F912F910F900FBE0F901F900C
:100AD000189580E49CE990938900809388008FEFBB
:100AE00080935001E3CFCF92DF92EF92FF920F936A
:100AF0001F93E82FF92F05C0015011092109310971
:100B000061F1908196239417B9F305C00150110942
:100B10002109310911F1908196239413F7CFC12C4B
:100B2000D12CE12CF12C0AC08FEFC81AD80AE80AA0
:100B3000F80A0C151D052E053F0579F080818623E6
:100B4000841791F36C2D7D2D8E2D9F2D1F910F916C
:100B5000FF90EF90DF90CF90089560E070E080E02C
:100B600090E01F910F91FF90EF90DF90CF9008954C
:100B7000109269011092680188EE93E0A0E0B0E065
:100B800080936A0190936B01A0936C01B0936D0107
:100B900084E091E0909367018093660185EC90E09A
:100BA000909373018093720184EC90E090937501AF
:100BB0008093740180EC90E09093770180937601AC
:100BC00081EC90E0909379018093780182EC90E041
:100BD00090937B0180937A0186EC90E090937D0165
:100BE00080937C0110927F0110928001109281010C
:100BF00010928201809127028C3098F491E0980F36
:100C0000909327028093280290E0FC01EE0FFF1FD3
:100C1000E80FF91FED5FFD4F88EB9BE09283818326
:100C200008958FEF809328020895CF93DF93CDB777
:100C3000DEB72C970FB6F894DEBF0FBECDBF789409
:100C400084B5826084BD84B5816084BD85B58260D1
:100C500085BD85B5816085BD80916E008160809382
:100C60006E001092810080918100826080938100EB
:100C700080918100816080938100809180008160FB
:100C8000809380008091B10084608093B100809156
:100C9000B00081608093B00080917A00846080937E
:100CA0007A0080917A00826080937A0080917A0045
:100CB000816080937A0080917A00806880937A00C6
:100CC0001092C100E0917601F091770182E080837B
:100CD000E0917201F09173011082E0917401F09142
:100CE000750180E1808310927E01E0917A01F0919C
:100CF0007B0186E08083E0917801F0917901808129
:100D000080618083E0917801F09179018081886031
:100D10008083E0917801F0917901808180688083FF
:100D2000E0917801F091790180818F7D808361E08D
:100D300087E00E94530160E086E00E9453018091A9
:100D400028028C3008F051C061E089E00E94530114
:100D500080912802282F30E0F901EE0FFF1FE20FEB
:100D6000F31FED5FFD4F9081907C9960908310920E
:100D7000290210922A022CE0622F0E94920B829F7D
:100D8000B001112430E020E0AB01420F531FFA0103
:100D9000EE0FFF1FE40FF51FED5FFD4F908196FDF5
:100DA00016C02F5F3F4F2C30310571F781110FC0F6
:100DB0001092800082E08093810010928500109252
:100DC0008400B19A80916F00826080936F00E091FF
:100DD00028028E2F90E0FC01EE0FFF1FE80FF91F95
:100DE000ED5FFD4F8081806480838AE590E00E9402
:100DF0008C0068EE73E080E090E00E94A9012FB7BC
:100E0000F89480915E0190915F01A0916001B09192
:100E100061012FBF8093590190935A01A0935B0108
:100E2000B0935C018EE191E00E94E8028AE491E0D7
:100E30000E94E80250E0252E50E0352E60E087E069
:100E40000E94070183E090E00197F1F761E087E0FD
:100E50000E94070183E290E00197F1F760E087E0EC
:100E60000E940701E0EAF0E06491ECE8F0E0849190
:100E7000E82FF0E0EE0FFF1FE859FF4F85919491A6
:100E800000E315E720E030E0462F0E94730561156E
:100E900071058105910509F477C16F5F7F4F8F4F11
:100EA0009F4F9F70611571058105910509F46CC113
:100EB0000E946B0A28E23EE74CE05DE30E94200BB3
:100EC00020E030E040E05FE30E94200B69837A83FA
:100ED0008B839C8320E030E040EA50E40E94BC0910
:100EE00087FD52C120E030E040E252E469817A811E
:100EF0008B819C810E941B0B18160CF445C120E0CD
:100F000030E0A90169817A818B819C810E94BC09B2
:100F100087FD3AC18FB7F89420915E0130915F014F
:100F200040916001509161012D833E834F8358872A
:100F30008FBF8091590190915A01A0915B01B091AE
:100F40005C01281B390B4A0B5B0BCA01B9010E94DB
:100F5000690A20E030E04AE754E40E94C1094B01ED
:100F60005C012FE832EC45EF5CE30E94BC0987FD91
:100F70000BC18D819E81AF81B8858093590190937B
:100F80005A01A0935B01B0935C0129813A814B81A6
:100F90005C8160E070E080E791E40E944F092B01E2
:100FA0003C01AC019B01C501B4010E94200B2091C2
:100FB00055013091560140915701509158010E94BE
:100FC00050096B017C0120E030E040E251EC0E94CE
:100FD000BC0987FDE5C020E030E040E251E4C701F4
:100FE000B6010E941B0B18160CF4E1C0C09255010B
:100FF000D0925601E0925701F09258012091510190
:10100000309152014091530150915401C301B201FA
:101010000E944F09A50194010E94C1094B015C0186
:1010200040925101509252016092530170925401CA
:10103000A3019201C301B2010E94500969877A8716
:101040008B879C8720E030E0A901C701B6010E9490
:10105000200B9B01AC0169857A858B859C850E945C
:1010600050096B017C012DEC3CEC4CEC5DE3C501BF
:10107000B4010E94200B9B01AC01C701B6010E9484
:1010800050096B017C0120E030E048EC51EC0E94FB
:10109000BC0987FD93C020E030E048EC51E4C70173
:1010A000B6010E941B0B18160CF48FC020E030E034
:1010B00044EB52E4C701B6010E9450090E94330A72
:1010C0007A8769876937710524F0E8E7F0E0FA87E5
:1010D000E98729853A852C33310524F44CE350E027
:1010E0005A87498789859A850E948C006D817E8107
:1010F0008F8198850E94690A20E030E04AE754E435
:101100000E94C10943E00E9439038DE491E00E94EE
:10111000E80243E060E070E080E791E40E94390378
:101120008DE491E00E94E80243E069817A818B813D
:101130009C810E9439038DE491E00E94E80243E023
:10114000C301B2010E9439038DE491E00E94E802DC
:1011500043E0C701B6010E9439038DE491E00E948B
:10116000E802A985BA85BD01BB0F880B990B4AE03F
:101170000E94F5028AE491E00E94E80264E170E0D6
:1011800080E090E00E94A9012114310409F456CEB8
:101190000E944502882309F451CE0E9400004ECEE1
:1011A000C12CD12C30E2E32E31ECF32E1FCFC12C19
:1011B000D12C20E2E22E21E4F22E18CFC12CD12C2A
:1011C00098ECE92E91ECF92E71CFC12CD12C88EC42
:1011D000E82E81E4F82E6ACF052E97FB1EF40094CA
:1011E0000E94030957FD07D00E941E0907FC03D087
:1011F0004EF40C94030950954095309521953F4F3E
:101200004F4F5F4F089590958095709561957F4FF2
:101210008F4F9F4F08950E944009A59F900DB49F46
:10122000900DA49F800D911D11240895B7FF0C947B
:101230000B090E940B09821B930B0895A1E21A2E41
:10124000AA1BBB1BFD010DC0AA1FBB1FEE1FFF1F6A
:10125000A217B307E407F50720F0A21BB30BE40BBA
:10126000F50B661F771F881F991F1A9469F7609501
:101270007095809590959B01AC01BD01CF010895BB
:10128000A29FB001B39FC001A39F700D811D1124C7
:10129000911DB29F700D811D1124911D089550580C
:1012A000BB27AA270E9467090C94E10A0E94D30A6F
:1012B00038F00E94DA0A20F039F49F3F19F426F43E
:1012C0000C94D00A0EF4E095E7FB0C94CA0AE92FBF
:1012D0000E94F20A58F3BA1762077307840795074A
:1012E00020F079F4A6F50C94140B0EF4E0950B2E77
:1012F000BA2FA02D0B01B90190010C01CA01A00168
:101300001124FF27591B99F0593F50F4503E68F1C2
:101310001A16F040A22F232F342F4427585FF3CF03
:10132000469537952795A795F0405395C9F77EF4D4
:101330001F16BA0B620B730B840BBAF09150A1F01D
:10134000FF0FBB1F661F771F881FC2F70EC0BA0FA3
:10135000621F731F841F48F4879577956795B7952B
:10136000F7959E3F08F0B0CF9395880F08F0992726
:10137000EE0F9795879508950E94A60A08F481E0DC
:1013800008950E94D5090C94E10A0E94DA0A58F0E7
:101390000E94D30A40F029F45F3F29F00C94CA0A56
:1013A00051110C94150B0C94D00A0E94F20A68F3A8
:1013B0009923B1F3552391F3951B550BBB27AA270E
:1013C00062177307840738F09F5F5F4F220F331F48
:1013D000441FAA1FA9F335D00E2E3AF0E0E832D010
:1013E00091505040E695001CCAF72BD0FE2F29D013
:1013F000660F771F881FBB1F261737074807AB07E5
:10140000B0E809F0BB0B802DBF01FF2793585F4F59
:101410003AF09E3F510578F00C94CA0A0C94150BD3
:101420005F3FE4F3983ED4F3869577956795B7953B
:10143000F7959F5FC9F7880F911D9695879597F946
:101440000895E1E0660F771F881FBB1F62177307BF
:101450008407BA0720F0621B730B840BBA0BEE1FD4
:1014600088F7E09508950E943A0A6894B1110C94A7
:10147000150B08950E94FA0A88F09F5798F0B92F2B
:101480009927B751B0F0E1F0660F771F881F991FB9
:101490001AF0BA95C9F714C0B13091F00E94140B3C
:1014A000B1E008950C94140B672F782F8827B85F4C
:1014B00039F0B93FCCF3869577956795B395D9F711
:1014C0003EF490958095709561957F4F8F4F9F4F1B
:1014D0000895E89409C097FB3EF490958095709527
:1014E00061957F4F8F4F9F4F9923A9F0F92F96E970
:1014F000BB279395F695879577956795B795F111E5
:10150000F8CFFAF4BB0F11F460FF1BC06F5F7F4F81
:101510008F4F9F4F16C0882311F096E911C0772393
:1015200021F09EE8872F762F05C0662371F096E89C
:10153000862F70E060E02AF09A95660F771F881F6B
:10154000DAF7880F9695879597F90895990F00080F
:10155000550FAA0BE0E8FEEF16161706E807F90785
:10156000C0F012161306E407F50798F0621B730B20
:10157000840B950B39F40A2661F0232B242B252BA1
:1015800021F408950A2609F4A140A6958FEF811D44
:10159000811D089597F99F6780E870E060E00895E5
:1015A0009FEF80EC089500240A941616170618067B
:1015B0000906089500240A94121613061406050657
:1015C0000895092E0394000C11F4882352F0BB0FE8
:1015D00040F4BF2B11F460FF04C06F5F7F4F8F4F4B
:1015E0009F4F089557FD9058440F551F59F05F3F86
:1015F00071F04795880F97FB991F61F09F3F79F035
:1016000087950895121613061406551FF2CF4695B6
:10161000F1DF08C0161617061806991FF1CF869538
:101620007105610508940895E894BB27662777271C
:10163000CB0197F908950E94A60A08F48FEF089548
:101640000E94330B0C94E10A0E94D30A38F00E94E6
:10165000DA0A20F0952311F00C94CA0A0C94D00AEF
:1016600011240C94150B0E94F20A70F3959FC1F39C
:10167000950F50E0551F629FF001729FBB27F00D40
:10168000B11D639FAA27F00DB11DAA1F649F662795
:10169000B00DA11D661F829F2227B00DA11D621FE4
:1016A000739FB00DA11D621F839FA00D611D221F9E
:1016B000749F3327A00D611D231F849F600D211D82
:1016C000822F762F6A2F11249F5750409AF0F1F005
:1016D00088234AF0EE0FFF1FBB1F661F771F881F6E
:1016E00091505040A9F79E3F510580F00C94CA0AD2
:1016F0000C94150B5F3FE4F3983ED4F386957795F1
:101700006795B795F795E7959F5FC1F7FE2B880F13
:10171000911D9695879597F908950E94A60A880BC2
:10172000990B0895991B79E004C0991F961708F04A
:10173000961B881F7A95C9F780950895EE0FFF1FB5
:101740000590F491E02D0994F894FFCF000000007B
:101750007B02DB010802C802390217022B026E610C
:101760006E00696E66006F76660054696D652C5375
:101770006574706F696E742C44697374616E63650F
:101780002C4572726F722C5049442C536572766FDF
:0C179000416E676C65000D0A002C000023
:107E0000112484B714BE81FFF0D085E080938100F7
:107E100082E08093C00088E18093C10086E0809377
:107E2000C20080E18093C4008EE0C9D0259A86E02C
:107E300020E33CEF91E0309385002093840096BBD3
:107E4000B09BFECF1D9AA8958150A9F7CC24DD24C4
:107E500088248394B5E0AB2EA1E19A2EF3E0BF2EE7
:107E6000A2D0813461F49FD0082FAFD0023811F036
:107E7000013811F484E001C083E08DD089C08234E0
:107E800011F484E103C0853419F485E0A6D080C0E4
:107E9000853579F488D0E82EFF2485D0082F10E0AE
:107EA000102F00270E291F29000F111F8ED06801E7
:107EB0006FC0863521F484E090D080E0DECF843638
:107EC00009F040C070D06FD0082F6DD080E0C81688
:107ED00080E7D80618F4F601B7BEE895C0E0D1E017
:107EE00062D089930C17E1F7F0E0CF16F0E7DF06D8
:107EF00018F0F601B7BEE89568D007B600FCFDCFD4
:107F0000A601A0E0B1E02C9130E011968C91119780
:107F100090E0982F8827822B932B1296FA010C0160
:107F200087BEE89511244E5F5F4FF1E0A038BF0790
:107F300051F7F601A7BEE89507B600FCFDCF97BE46
:107F4000E89526C08437B1F42ED02DD0F82E2BD052
:107F50003CD0F601EF2C8F010F5F1F4F84911BD097
:107F6000EA94F801C1F70894C11CD11CFA94CF0C13
:107F7000D11C0EC0853739F428D08EE10CD085E9AC
:107F80000AD08FE07ACF813511F488E018D01DD067
:107F900080E101D065CF982F8091C00085FFFCCF94
:107FA0009093C60008958091C00087FFFCCF809118
:107FB000C00084FD01C0A8958091C6000895E0E648
:107FC000F0E098E1908380830895EDDF803219F02E
:107FD00088E0F5DFFFCF84E1DECF1F93182FE3DFCA
:107FE0001150E9F7F2DF1F91089580E0E8DFEE27F6
:047FF000FF270994CA
:027FFE00040479
:00000001FF
